{
  "address": "0x706113D7b56814037ab6535733684039A601B58e",
  "abi": [
    {
      "inputs": [
        {
          "internalType": "contract ISwapRouter",
          "name": "_swapRouter",
          "type": "address"
        }
      ],
      "stateMutability": "nonpayable",
      "type": "constructor"
    },
    {
      "inputs": [],
      "name": "DAI",
      "outputs": [
        {
          "internalType": "address",
          "name": "",
          "type": "address"
        }
      ],
      "stateMutability": "view",
      "type": "function"
    },
    {
      "inputs": [],
      "name": "USDC",
      "outputs": [
        {
          "internalType": "address",
          "name": "",
          "type": "address"
        }
      ],
      "stateMutability": "view",
      "type": "function"
    },
    {
      "inputs": [],
      "name": "WETH9",
      "outputs": [
        {
          "internalType": "address",
          "name": "",
          "type": "address"
        }
      ],
      "stateMutability": "view",
      "type": "function"
    },
    {
      "inputs": [
        {
          "internalType": "uint256",
          "name": "amountIn",
          "type": "uint256"
        }
      ],
      "name": "swapExactInputMultihop",
      "outputs": [
        {
          "internalType": "uint256",
          "name": "amountOut",
          "type": "uint256"
        }
      ],
      "stateMutability": "nonpayable",
      "type": "function"
    },
    {
      "inputs": [
        {
          "internalType": "uint256",
          "name": "amountOut",
          "type": "uint256"
        },
        {
          "internalType": "uint256",
          "name": "amountInMaximum",
          "type": "uint256"
        }
      ],
      "name": "swapExactOutputMultihop",
      "outputs": [
        {
          "internalType": "uint256",
          "name": "amountIn",
          "type": "uint256"
        }
      ],
      "stateMutability": "nonpayable",
      "type": "function"
    },
    {
      "inputs": [],
      "name": "swapRouter",
      "outputs": [
        {
          "internalType": "contract ISwapRouter",
          "name": "",
          "type": "address"
        }
      ],
      "stateMutability": "view",
      "type": "function"
    }
  ],
  "transactionHash": "0xb40feca2924c024db611f355d2c53d98fdbde5f19242d040a8f4a3c1df82e213",
  "args": [
    "0xE592427A0AEce92De3Edee1F18E0157C05861564"
  ],
  "numDeployments": 1,
  "solcInputHash": "b967de185c848dc7a26dbac0519bed0a",
  "bytecode": "0x60a060405234801561001057600080fd5b5060405161095338038061095383398101604081905261002f91610040565b6001600160a01b0316608052610070565b60006020828403121561005257600080fd5b81516001600160a01b038116811461006957600080fd5b9392505050565b6080516108a66100ad6000396000818160e00152818161016c01528181610227015281816102d80152818161036a015261042601526108a66000f3fe608060405234801561001057600080fd5b50600436106100625760003560e01c80633b85cf6a146100675780634aa4a4fc1461008d57806389a30271146100c0578063c31c9c07146100db578063e0bab4c414610102578063edd835571461011d575b600080fd5b61007a6100753660046106c9565b610130565b6040519081526020015b60405180910390f35b6100a873c02aaa39b223fe8d0a0e5c4f27ead9083c756cc281565b6040516001600160a01b039091168152602001610084565b6100a873a0b86991c6218b36c1d19d4a2e9eb0ce3606eb4881565b6100a87f000000000000000000000000000000000000000000000000000000000000000081565b6100a8736b175474e89094c44da98b954eedeac495271d0f81565b61007a61012b3660046106eb565b61032e565b600061015273c02aaa39b223fe8d0a0e5c4f27ead9083c756cc23330856104ba565b61019173c02aaa39b223fe8d0a0e5c4f27ead9083c756cc27f0000000000000000000000000000000000000000000000000000000000000000846105c9565b6040805160a08101909152600090806101f0736b175474e89094c44da98b954eedeac495271d0f606473a0b86991c6218b36c1d19d4a2e9eb0ce3606eb48610bb873c02aaa39b223fe8d0a0e5c4f27ead9083c756cc260c08701610704565b6040516020818303038152906040528152602001336001600160a01b031681526020014281526020018581526020018481525090507f00000000000000000000000000000000000000000000000000000000000000006001600160a01b031663f28c0498826040518263ffffffff1660e01b815260040161027191906107df565b6020604051808303816000875af1158015610290573d6000803e3d6000fd5b505050506040513d601f19601f820116820180604052508101906102b491906107f2565b915082821015610327576102fe73c02aaa39b223fe8d0a0e5c4f27ead9083c756cc27f000000000000000000000000000000000000000000000000000000000000000060006105c9565b61032773c02aaa39b223fe8d0a0e5c4f27ead9083c756cc23033610322868861080b565b6104ba565b5092915050565b600061035073c02aaa39b223fe8d0a0e5c4f27ead9083c756cc23330856104ba565b61038f73c02aaa39b223fe8d0a0e5c4f27ead9083c756cc27f0000000000000000000000000000000000000000000000000000000000000000846105c9565b6040805160a08101909152600090806103ee73c02aaa39b223fe8d0a0e5c4f27ead9083c756cc2610bb873a0b86991c6218b36c1d19d4a2e9eb0ce3606eb486064736b175474e89094c44da98b954eedeac495271d0f60c08701610704565b6040516020818303038152906040528152602001336001600160a01b03168152602001428152602001848152602001600081525090507f00000000000000000000000000000000000000000000000000000000000000006001600160a01b031663c04b8d59826040518263ffffffff1660e01b815260040161047091906107df565b6020604051808303816000875af115801561048f573d6000803e3d6000fd5b505050506040513d601f19601f820116820180604052508101906104b391906107f2565b9392505050565b604080516001600160a01b0385811660248301528481166044830152606480830185905283518084039091018152608490920183526020820180516001600160e01b03166323b872dd60e01b179052915160009283929088169161051e9190610832565b6000604051808303816000865af19150503d806000811461055b576040519150601f19603f3d011682016040523d82523d6000602084013e610560565b606091505b509150915081801561058a57508051158061058a57508080602001905181019061058a919061084e565b6105c15760405162461bcd60e51b815260206004820152600360248201526229aa2360e91b60448201526064015b60405180910390fd5b505050505050565b604080516001600160a01b038481166024830152604480830185905283518084039091018152606490920183526020820180516001600160e01b031663095ea7b360e01b17905291516000928392908716916106259190610832565b6000604051808303816000865af19150503d8060008114610662576040519150601f19603f3d011682016040523d82523d6000602084013e610667565b606091505b5091509150818015610691575080511580610691575080806020019051810190610691919061084e565b6106c25760405162461bcd60e51b8152602060048201526002602482015261534160f01b60448201526064016105b8565b5050505050565b600080604083850312156106dc57600080fd5b50508035926020909101359150565b6000602082840312156106fd57600080fd5b5035919050565b6bffffffffffffffffffffffff19606096871b811682526001600160e81b031960e896871b8116601484015294871b811660178301529290941b909216602b840152921b909116602e82015260420190565b60005b83811015610771578181015183820152602001610759565b50506000910152565b6000815160a0845280518060a086015261079b8160c0870160208501610756565b6020848101516001600160a01b0316908601526040808501519086015260608085015190860152608093840151938501939093525050601f01601f19160160c00190565b6020815260006104b3602083018461077a565b60006020828403121561080457600080fd5b5051919050565b8181038181111561082c57634e487b7160e01b600052601160045260246000fd5b92915050565b60008251610844818460208701610756565b9190910192915050565b60006020828403121561086057600080fd5b815180151581146104b357600080fdfea26469706673582212209feacfb2a9dc2acf8a9a8de27c7dfda7f0fa52882b3a655df19db3bb1963875764736f6c63430008110033",
  "devdoc": {
    "kind": "dev",
    "methods": {},
    "version": 1
  },
  "userdoc": {
    "kind": "user",
    "methods": {},
    "version": 1
  },
  "storageLayout": {
    "storage": [],
    "types": null
  }
}